S02000005254435F726561645F74696D65725F696E74657276616C6C2E7372656370
S11300000C942A000C943F000C943F000C943F0085
S11300100C943F000C943F000C943F000C943F0060
S11300200C943F000C943F000C943F000C943F0050
S11300300C943F000C943F000C943F000C943F0040
S11300400C943F000C943F000C943F000C943F0030
S11300500C943F0011241FBECFE5D8E0DEBFCDBF16
S113006010E0A0E6B0E0E4E6F2E002C005900D92F4
S1130070A837B107D9F70E94FB000C9430010C9407
S113008000008BB381608BBB00008BB38E7F8BBB76
S11300908EE791E00197F1F70000089588BB8BB3D8
S11300A08B7F8BBB8BB38D7F8BBB0E9441000895EC
S11300B088BB8BB384608BBB8BB38D7F8BBB0E945F
S11300C0410008950F931F93CF93DF938C01C0E0F9
S11300D0D0E003C00E9458002196F801EC0FFD1FE8
S11300E080818111F7CFDF91CF911F910F910895F6
S11300F0CF93DF93EA01811107C0603128F4862F82
S113010080680E944E0008C0813031F4603120F4D0
S1130110862F806C0E944E00CE010E946200DF9107
S1130120CF91089581E00E944E0080E80E944E0025
S113013008958FEF8ABB87BB87E893E10197F1F7B6
S113014000C0000088E30E944E008CE00E944E0034
S113015086E00E944E000E94920008952AB1286110
S11301602AB920B5266820BD2BB122602BB92AB14B
S113017020682AB9DC01CB01880F991FAA1FBB1F75
S1130180880F991FAA1FBB1F9C01AD01220F331FAB
S1130190441F551F60E472E48FE090E00E940E015A
S11301A0DA01C9010197A109B10989B9892F9A2FE7
S11301B0AB2FBB27A7FDBA9580BD08955D9BFECFED
S11301C08CB908950F931F93CF93DF938C01C0E0F4
S11301D0D0E0F801EC0FFD1F80810E94DE00219623
S11301E0F801EC0FFD1F80818111F3CFDF91CF91D6
S11301F01F910F91089560E875E280E090E00E94FD
S1130200AE0083E690E00E94E2000E94990044E779
S113021050E060E080E00E947800FFCFA1E21A2E57
S1130220AA1BBB1BFD010DC0AA1FBB1FEE1FFF1F96
S1130230A217B307E407F50720F0A21BB30BE40BE6
S1130240F50B661F771F881F991F1A9469F760952D
S11302507095809590959B01AC01BD01CF010895E7
S1070260F894FFCF3C
S113026425640048656973616E6E207376656973ED
S10B0274616E6E00686569000B
S9030000FC
