S00C0000576946692E73726563A9
S11300000C942A000C943F000C943F000C943F0085
S11300100C943F000C943F000C943F000C943F0060
S11300200C943F000C943F000C943F000C943F0050
S11300300C943F000C943F000C943F000C943F0040
S11300400C943F000C943F000C943F000C943F0030
S11300500C943F0011241FBECFE5D8E0DEBFCDBF16
S113006010E0A0E6B0E0EAEAF1E002C005900D92EB
S1130070A438B107D9F70E948D000C94D3000C94D6
S113008000002AB128612AB920B5266820BDDC0108
S1130090CB01880F991FAA1FBB1F880F991FAA1F86
S11300A0BB1F9C01AD01220F331F441F551F220F9C
S11300B0331F441F551F60E072E18AE790E00E94FD
S11300C0B1008FEF820F89B9DA01C9010197A10943
S11300D0B109892F9A2FAB2FBB2780BD08955F9B51
S11300E0FECF8CB108958CB95D9BFECF08950F931C
S11300F01F93CF93DF938C01C0E0D0E003C00E9434
S113010073002196F801EC0FFD1F80818111F7CF58
S1130110DF91CF911F910F9108958FEF87BB60E816
S113012075E280E090E00E94410018BA0E946F00DE
S1130130813341F488B3816088BB80E690E00E94FB
S11301407700F4CF823341F488B38E7F88BB87E68F
S113015090E00E947700EACF8FE690E00E9477005B
S1130160E5CFA1E21A2EAA1BBB1BFD010DC0AA1FDD
S1130170BB1FEE1FFF1FA217B307E407F50720F00C
S1130180A21BB30BE40BF50B661F771F881F991F87
S11301901A9469F760957095809590959B01AC01D0
S10D01A0BD01CF010895F894FFCFCC
S11301AA4C45445F4F4E004C45445F4F464600530E
S11301BA656C6563742070726F706572206F7074F9
S10701CA696F6E00E7
S9030000FC
