S01400004D61696E5F70726F6A6563742E7372656335
S11300000C942A000C9447000C9421020C94470091
S11300100C9447000C9447000C9447000C94600225
S11300200C9447000C9447000C9447000C94470030
S11300300C9447000C9447000C9447000C94470020
S11300400C9447000C9447000C9447000C94470010
S11300500C94470011241FBECFE5D8E0DEBFCDBF0E
S113006010E0A0E6B0E0EEEDFEE002C005900D92D7
S1130070A83BB107D9F720E0A8EBB0E001C01D927E
S1130080A73CB207E1F70E9406040C946D070C9498
S113009000008BB381608BBB00008BB38E7F8BBB66
S11300A08EE791E00197F1F70000089588BB8BB3C8
S11300B08B7F8BBB8BB38D7F8BBB0E9449000895D4
S11300C088BB8BB384608BBB8BB38D7F8BBB0E944F
S11300D0490008950F931F93CF93DF938C01C0E0E1
S11300E0D0E003C00E9460002196F801EC0FFD1FD0
S11300F080818111F7CFDF91CF911F910F910895E6
S1130100CF93DF93EA01811107C0603128F4862F71
S113011080680E94560008C0813031F4603120F4B8
S1130120862F806C0E945600CE010E946A00DF91E7
S1130130CF91089581E00E94560080E80E94560005
S113014008958FEF8ABB87BB87E893E10197F1F7A6
S113015000C0000088E30E9456008CE00E94560014
S113016086E00E9456000E949A00089582E080B9B9
S113017085B3836085BB089594EA96BF06B607FEEF
S1130180FDCF83B984E886BF06B607FEFDCF089588
S113019094EA96BF06B607FEFDCF83B984E886BF0E
S11301A006B607FEFDCF089583B984E886BF06B678
S11301B007FEFDCF089584EC86BF06B607FEFDCF8B
S11301C083B1089584E886BF06B607FEFDCF83B1E8
S11301D0089584E986BF06B604FCFDCF0895982FE0
S11301E092959F708F70990F292F220F220F920FD3
S11301F0890F0895CF93C82F80ED0E94BC008C2FE7
S11302000E94D40081ED0E94C8000E94DB000E947D
S1130210EF008093C1000E94DB000E94EF008093F6
S1130220C2000E94E2008F730E94EF008093C3001B
S11302300E94E900CF910895CF93C82F80ED0E94CA
S1130240BC008C2F0E94D40081ED0E94C8000E9443
S1130250DB008093C6000E94DB008093C5000E94EF
S1130260DB008093C0000E94E2008093C4000E94DF
S1130270E900CF9108952DEC829F212D112426951C
S113028026952695322F330F932F990F990F930F9D
S1130290891B90E1299F900111248F70822B08956E
S11302A01F93CF93DF93C82FD62F142F80ED0E9476
S11302B0BC0080E00E94D400812F0E943B010E9478
S11302C0D4008D2F0E943B010E94D4008C2F0E94E9
S11302D03B010E94D4000E94E900DF91CF911F915D
S11302E008950F931F93CF93DF93082F162FD42FC6
S11302F0C22F80ED0E94BC0083E00E94D400802FB6
S11303000E94D400812F0E943B010E94D4008D2FB3
S11303100E943B010E94D4008C2F0E943B010E944A
S1130320D4000E94E900DF91CF911F910F910895AD
S113033080ED0E94BC008EE00E94D40085E00E9403
S1130340D4000E94E90008951F93CF93DF93C82F30
S1130350D62F142F80ED0E94BC0087E00E94D400A9
S1130360812F0E943B010E94D4008D2F0E943B01EB
S11303700E94D4008C2F0E943B010E94D40080E88C
S11303800E94D4000E94E900DF91CF911F9108954B
S113039080ED0E94BC008FE00E94D40088E80E9497
S11303A0D4000E94E90008952AB128612AB920B531
S11303B0266820BD2BB122602BB92AB120682AB946
S11303C0DC01CB01880F991FAA1FBB1F880F991F3F
S11303D0AA1FBB1F9C01AD01220F331F441F551FD1
S11303E060E472E48FE090E00E944D04DA01C901F8
S11303F00197A109B10989B9892F9A2FAB2FBB277E
S1130400A7FDBA9580BD08955D9BFECF8CB9089574
S11304100F931F93CF93DF938C01C0E0D0E0F801DA
S1130420EC0FFD1F80810E9404022196F801EC0F5D
S1130430FD1F80818111F3CFDF91CF911F910F9127
S113044008951F920F920FB60F9211242F933F938A
S11304504F935F936F937F938F939F93AF93BF93C8
S1130460EF93FF9342E850E060E080E00E94800058
S113047083E00E941C018091C600863028F010920F
S1130480BD001092BC0009C081E090E09093BD00D3
S11304908093BC0089B7806189BF0E94C801FF9125
S11304A0EF91BF91AF919F918F917F916F915F91E8
S11304B04F913F912F910F900FBE0F901F90189561
S11304C01F920F920FB60F921124CF92DF92EF92E8
S11304D0FF920F931F932F933F934F935F936F93C9
S11304E07F938F939F93AF93BF93EF93FF93CF9398
S11304F0DF93CDB7DEB7AD97DEBFCDBF8091BC0033
S11305009091BD00892B09F454C180E00E94FA0047
S11305108091C3009091C200E92EF12C2CE3829FBC
S1130520E00CF11C11242091C1001F922F931F9203
S11305309F931F928F9388E890E09F938F938E01EF
S11305400B5E1F4F1F930F930E948304A80160E06A
S113055080E00E9480000FB6F894DEBF0FBECDBFCE
S113056000E010E0ECC0F801EE0FFF1FE00FF11FF8
S1130570EE0FFF1FE05AFF4F808191814CE3489FAB
S11305809001499F300D112482819381820F931F22
S1130590E816F90609F05FC0F801EE0FFF1FE00F3F
S11305A0F11FEE0FFF1FE05AFF4F24813581211503
S11305B0310509F450C02F3F9FEF390741F489B743
S11305C08F7E89BF1092BD001092BC00BCC0809188
S11305D0BA009091BB00019709F0AFC03093B90005
S11305E02093B8008091B8009091B9008E0D9F1DA2
S11305F09093BF008093BE008091B8009091B900A1
S11306009F938F9387E990E09F938F936E0129E2E4
S1130610C20ED11CDF92CF920E948304C6010E94B5
S113062008020E949A00AE014B5E5F4F60E080E0DA
S11306300E94800043EA50E067E081E00E9480006D
S11306401092BB001092BA000F900F900F900F9071
S11306500F900F9072C0F801EE0FFF1FE00FF11F13
S1130660EE0FFF1FE05AFF4F24813581820F931F45
S1130670E816F90609F061C08091BA009091BB00B8
S1130680892B09F05AC0C8010196FC01EE0FFF1F27
S1130690DF01A80FB91FAA0FBB1FA05ABF4F4D916E
S11306A05C9111976CE3649F9001659F300D112458
S11306B0FD0182819381820F931F8E199F0990936C
S11306C0B9008093B8008091B8009091B9008E0D64
S11306D09F1D9093BF008093BE008091B8009091BD
S11306E0B9009F938F938BE990E09F938F936E0152
S11306F089E2C80ED11CDF92CF920E948304C60106
S11307000E9408020E949A00AE014B5E5F4F60E0B7
S113071080E00E9480004FE950E067E081E00E94A1
S1130720800081E090E09093BB008093BA000F902A
S11307300F900F900F900F900F900F5F1F4F053089
S113074011050CF410CF2091BE003091BF004CE392
S1130750429FC001439F900D1124CB962FEFE21AC4
S1130760F20A4E9D90014F9D300D11244091C1001D
S1130770240F311D821B930B6CE370E00E9439043B
S11307809F938F937F936F9389EA90E09F938F93C6
S11307908E010F5F1F4F1F930F930E948304A801C4
S11307A060E081E00E9480000FB6F894DEBF0FBEC7
S11307B0CDBFAD960FB6F894DEBF0FBECDBFDF91AF
S11307C0CF91FF91EF91BF91AF919F918F917F91C5
S11307D06F915F914F913F912F911F910F91FF90D6
S11307E0EF90DF90CF900F900FBE0F901F90189551
S11307F08EB583608EBD8EB588608EBD89E09DE325
S11308009BBD8ABD89B78F7E89BF08958BB78068E9
S11308108BBF85B7886085BF85B78B7F85BF0E94F6
S1130820B60042E36BE387E00E94500128E146E012
S113083065E081E00E9471010E9498014AE36BE344
S113084087E00E94A4010E94A1000E94F803609125
S11308507E0070917F0080918000909181000E94C1
S1130860D40143EB50E060E080E00E948000789483
S1130870FFCF97FB072E16F4009407D077FD09D01D
S11308800E946F0407FC05D03EF4909581959F4F1C
S11308900895709561957F4F0895A1E21A2EAA1BC1
S11308A0BB1BFD010DC0AA1FBB1FEE1FFF1FA2171C
S11308B0B307E407F50720F0A21BB30BE40BF50B19
S11308C0661F771F881F991F1A9469F760957095A2
S11308D0809590959B01AC01BD01CF010895AA1BA1
S11308E0BB1B51E107C0AA1FBB1FA617B70710F017
S11308F0A61BB70B881F991F5A95A9F78095909549
S1130900BC01CD010895AEE0B0E0E9E8F4E00C9458
S113091044070D891E8986E08C831A8309838FEF2F
S11309209FE79E838D83AE01475E5F4F6F89788D0D
S1130930CE0101960E94A504EF81F885E00FF11F16
S113094010822E96E4E00C946007ABE0B0E0EBEA92
S1130950F4E00C9436076C017B018A01FC011782D8
S11309601682838181FFCCC1CE0101963C01F60140
S11309709381F70193FD859193FF81917F018823F2
S113098009F4BAC1853239F493FD859193FF8191BD
S11309907F01853229F4B60190E00E949C06E7CFDE
S11309A0912C212C312CFFE1F315D8F08B3279F006
S11309B038F4803279F08332A1F4232D20611DC0F4
S11309C08D3261F0803369F4232D216016C0832DAC
S11309D08260382EE32DE4603E2E2AC0F32DF860A9
S11309E01DC037FC2DC020ED280F2A3040F08E3278
S11309F0B9F436FC81C1232D2064322E19C036FE91
S1130A0006C08AE0989E200D1124922E11C0EAE0BF
S1130A102E9E200D1124222EF32DF0623F2E08C0AD
S1130A208C3621F4832D8068382E02C0883641F438
S1130A30F70193FD859193FF81917F018111B3CFDC
S1130A40982F9F7D9554933028F40C5F1F4F9FE39C
S1130A5099830DC0833631F0833771F0833509F003
S1130A6059C021C0F801808189830E5F1F4F8824FB
S1130A708394912C530113C02801F2E04F0E511CB2
S1130A80F801A080B18036FE03C0692D70E002C079
S1130A906FEF7FEFC5010E9491064C018201F32D97
S1130AA0FF773F2E16C0280122E0420E511CF801A8
S1130AB0A080B18036FE03C0692D70E002C06FEFE4
S1130AC07FEFC5010E9486064C01F32DF0683F2E8E
S1130AD0820133FC1BC0822D90E088169906B0F485
S1130AE0B60180E290E00E949C062A94F4CFF501BE
S1130AF037FC859137FE81915F01B60190E00E9439
S1130B009C0621102A9421E0821A910881149104F0
S1130B1071F7E8C0843611F0893641F5F80137FEE3
S1130B2007C060817181828193810C5F1F4F08C06F
S1130B3060817181072E000C880B990B0E5F1F4F8B
S1130B40F32DFF763F2E97FF09C090958095709501
S1130B5061957F4F8F4F9F4FF0683F2E2AE030E022
S1130B60A3010E94D806882E861845C0853731F423
S1130B70232D2F7EB22E2AE030E025C0932D997FBD
S1130B80B92E8F36C1F018F4883579F0B5C08037A6
S1130B9019F0883721F0B0C0E92FE061BE2EB4FE11
S1130BA00DC0FB2DF460BF2E09C034FE0AC0292FEE
S1130BB02660B22E06C028E030E005C020E130E017
S1130BC002C020E132E0F801B7FE07C06081718104
S1130BD0828193810C5F1F4F06C06081718180E028
S1130BE090E00E5F1F4FA3010E94D806882E86183E
S1130BF0FB2DFF773F2E36FE0DC0232D2E7FA22E18
S1130C00891458F434FE0BC032FC09C0832D8E7E47
S1130C10A82E05C0B82CA32C03C0B82C01C0B92C35
S1130C20A4FE0FC0FE01E80DF11D8081803321F484
S1130C309A2D997EA92E09C0A2FE06C0B394B3943E
S1130C4004C08A2D867809F0B394A3FC11C0A0FED9
S1130C5006C0B21488F4280C922C9B180EC0B2144F
S1130C6060F4B60180E290E00E949C06B394F7CF52
S1130C70B21418F42B1802C0982C212CA4FE10C016
S1130C80B60180E390E00E949C06A2FE17C0A1FC7E
S1130C9003C088E790E002C088E590E0B6010CC08C
S1130CA08A2D867859F0A1FE02C08BE201C080E251
S1130CB0A7FC8DE2B60190E00E949C06891438F4EA
S1130CC0B60180E390E00E949C069A94F7CF8A9440
S1130CD0F301E80DF11D8081B60190E00E949C06AD
S1130CE08110F5CF222009F442CEB60180E290E0D3
S1130CF00E949C062A94F6CFF6018681978102C051
S1130D008FEF9FEF2B96E2E10C945207FC010590C4
S1130D10615070400110D8F7809590958E0F9F1FF9
S1130D200895FC016150704001900110D8F780953E
S1130D3090958E0F9F1F08950F931F93CF93DF936A
S1130D40FB01238121FD03C08FEF9FEF2CC022FF05
S1130D5016C046815781248135814217530744F4D4
S1130D60A081B1819D012F5F3F4F318320838C93FC
S1130D70268137812F5F3F4F3783268314C08B0131
S1130D80EC01FB010084F185E02D0995892BE1F646
S1130D90D80116968D919C911797019617969C935E
S1130DA08E931697CE01DF91CF911F910F910895E5
S1130DB0FA01AA27283051F1203181F1E8946F9388
S1130DC06E7F6E5F7F4F8F4F9F4FAF4FB1E03ED02E
S1130DD0B4E03CD0670F781F891F9A1FA11D680FCC
S1130DE0791F8A1F911DA11D6A0F711D811D911DFF
S1130DF0A11D20D009F468943F912AE0269F112474
S1130E003019305D3193DEF6CF010895462F4770D7
S1130E10405D4193B3E00FD0C9F7F6CF462F4F7032
S1130E20405D4A3318F0495D31FD4052419302D090
S1130E30A9F7EACFB4E0A695979587957795679536
S1130E40BA95C9F700976105710508959B01AC0136
S1130E500A2E06945795479537952795BA95C9F75D
S1130E60620F731F841F951FA01D08952F923F9238
S1130E704F925F926F927F928F929F92AF92BF92A6
S1130E80CF92DF92EF92FF920F931F93CF93DF9352
S1130E90CDB7DEB7CA1BDB0B0FB6F894DEBF0FBEAF
S1130EA0CDBF09942A88398848885F846E847D84FC
S1130EB08C849B84AA84B984C884DF80EE80FD80FE
S1130EC00C811B81AA81B981CE0FD11D0FB6F89474
S1110ED0DEBF0FBECDBFED010895F894FFCF35
S1130EDE08000000000008000100010008000300E3
S1130EEE02000B0000002D000F001E00FFFF8025E6
S1130EFE0000416C61726D00253032643A25303247
S1130F0E643A2530326400622564006C2564005412
S1130F1E494C20504155534500253033643A253011
S10B0F2E326400496E6974008D
S9030000FC
