S01400004D61696E5F70726F6A6563742E7372656335
S11300000C942A000C9447000C94B6040C944700FA
S11300100C9447000C9447000C9447000C94470040
S11300200C9447000C9447000C9447000C94470030
S11300300C9447000C9447000C9447000C94470020
S11300400C9447000C9447000C9447000C94470010
S11300500C94470011241FBECFE5D8E0DEBFCDBF0E
S113006010E0A0E6B0E0E4E2F0E102C005900D92F9
S1130070AA3BB107D9F720E0AAEBB0E001C01D927A
S1130080A83CB207E1F70E9451020C9410080C94AA
S113009000008BB381608BBB00008BB38E7F8BBB66
S11300A08EE791E00197F1F70000089588BB8BB3C8
S11300B08B7F8BBB8BB38D7F8BBB0E9449000895D4
S11300C088BB8BB384608BBB8BB38D7F8BBB0E944F
S11300D0490008950F931F93CF93DF938C01C0E0E1
S11300E0D0E003C00E9460002196F801EC0FFD1FD0
S11300F080818111F7CFDF91CF911F910F910895E6
S1130100CF93DF93EA01811107C0603128F4862F71
S113011080680E94560008C0813031F4603120F4B8
S1130120862F806C0E945600CE010E946A00DF91E7
S1130130CF91089581E00E94560080E80E94560005
S113014008958FEF8ABB87BB87E893E10197F1F7A6
S113015000C0000088E30E9456008CE00E94560014
S113016086E00E9456000E949A00089582E080B9B9
S113017085B3836085BB089594EA96BF06B607FEEF
S1130180FDCF91B1987F983071F483B984E886BF2C
S113019006B607FEFDCF81B1887F883131F0803209
S11301A031F482E0089580E0089581E0089583E0C9
S11301B0089594EA96BF06B607FEFDCF91B1987FE5
S11301C0903171F483B984E886BF06B607FEFDCF8B
S11301D081B1887F803431F0883431F482E008952D
S11301E080E0089581E0089583E0089583B984E868
S11301F086BF06B607FEFDCF81B1887F883221F025
S1130200803321F481E0089580E0089582E0089528
S113021084EC86BF06B607FEFDCF83B1089584E85B
S113022086BF06B607FEFDCF83B1089584E986BF75
S113023006B604FCFDCF0895CF93C82F80ED0E942D
S1130240BC008C2F0E94F60081ED0E94D9000E9410
S1130250080190E09093BD008093BC000E940801C7
S113026090E09093BF008093BE000E940F0190E045
S11302709093C1008093C0000E941601CF9108950D
S1130280CF93C82F80ED0E94BC008C2F0E94F600F3
S113029081ED0E94D9000E94080190E09093C7006C
S11302A08093C6000E94080190E09093C50080935B
S11302B0C4000E94080190E09093BB008093BA00B0
S11302C00E940F0190E09093C3008093C2000E94AB
S11302D01601CF9108952DEC829F212D112426958E
S11302E026952695322F330F932F990F990F930F3D
S11302F0891B90E1299F900111248F70822B08950E
S11303001F93CF93DF93C82FD62F142F80ED0E9415
S1130310BC0080E00E94F600812F0E946B010E94C5
S1130320F6008D2F0E946B010E94F6008C2F0E9414
S11303306B010E94F6000E941601DF91CF911F917C
S113034008950F931F93CF93DF93082F162FD42F65
S1130350C22F80ED0E94BC0083E00E94F600802F33
S11303600E94F600812F0E946B010E94F6008D2FDF
S11303700E946B010E94F6008C2F0E946B010E9468
S1130380F6000E941601DF91CF911F910F910895FD
S113039080ED0E94BC008EE00E94F60085E00E9481
S11303A0F6000E94160108951F93CF93DF93C82F80
S11303B0D62F142F80ED0E94BC0087E00E94F60027
S11303C0812F0E946B010E94F6008D2F0E946B0109
S11303D00E94F6008C2F0E946B010E94F60080E8B8
S11303E00E94F6000E941601DF91CF911F9108959B
S11303F080ED0E94BC008FE00E94F60088E80E9415
S1130400F6000E94160108952AB128612AB920B580
S1130410266820BD2BB122602BB92AB120682AB9E5
S1130420DC01CB01880F991FAA1FBB1F880F991FDE
S1130430AA1FBB1F9C01AD01220F331F441F551F70
S113044060E472E48FE090E00E94F004DA01C901F4
S11304500197A109B10989B9892F9A2FAB2FBB271D
S1130460A7FDBA9580BD08955D9BFECF8CB9089514
S11304700F931F93CF93DF938C01C0E0D0E0F8017A
S1130480EC0FFD1F80810E9434022196F801EC0FCD
S1130490FD1F80818111F3CFDF91CF911F910F91C7
S11304A0089578948BB780688BBF85B7886085BFC3
S11304B085B78B7F85BF0E94B60042E36BE387E07C
S11304C00E94800128E146E065E081E00E94A101EC
S11304D00E94C80140E060E088E00E94D4010E94CC
S11304E0A10060917E0070917F00809180009091C6
S11304F081000E940402FFCF2F923F924F925F929D
S11305006F927F928F929F92AF92BF92CF92DF921F
S1130510EF92FF920F931F93CF93DF93CDB7DEB784
S1130520AD970FB6F894DEBF0FBECDBF83E00E9437
S113053040018091C6009091C70006970CF0FBC162
S1130540E12CF12C812C912C212C312C412C512C7F
S113055080E00E941C018091BD008F938091BC00BB
S11305608F938091BF008F938091BE008F93809171
S1130570C0009091C1008F7399279F938F9382E855
S113058090E09F938F938E01065E1F4F1F930F93EE
S11305900E942605A80160E080E00E9480000FB65A
S11305A0F894DEBF0FBECDBF00E010E0BFC1F8017C
S11305B0EE0FFF1FE00FF11FEE0FFF1FE05AFF4F7A
S11305C0C280D380A480B580F601EA0DFB1DEC3314
S11305D0F10534F0CF016CE370E00E94DC0402C04A
S11305E060E070E0D801AA0FBB1FA00FB11FAA0FD3
S11305F0BB1FA05ABF4F8D919C912091C000309198
S1130600C1008217930709F098C04091BE00509131
S1130610BF00C416D50609F090C05FEFA516B50655
S113062009F489C1AB2809F050C02114310409F040
S11306304CC098012F5F3F4FF901EE0FFF1FDF0100
S1130640A20FB31FAA0FBB1FA05ABF4F0D90BC919E
S1130650A02D6CE36A9FA0016B9F500D1124E20F43
S1130660F31FEE0FFF1FE05AFF4F62807380640E8A
S1130670751E689F9001699F300D1124C20ED31E10
S11306806C187D087F926F9283E990E09F938F931B
S1130690CE0101966C019F938F930E942605C6019B
S11306A00E9438020E949A0047E950E066E081E027
S11306B00E9480000F900F900F900F900F900F905A
S11306C0812C912C22242394312C4114510409F0BF
S11306D08FC0F801EE0FFF1FE00FF11FEE0FFF1F99
S11306E0E05AFF4F84819581009709F481C09F935C
S11306F08F9381EA90E09F938F93DE0111967D01A1
S1130700BF93AF930E942605C7010E9438020E943E
S11307109A004BE950E066E081E00E9480000F906F
S11307200F900F900F900F900F907801882483946E
S1130730912C44244394512C5BC0680F791F2617D5
S1130740370709F055C08091BE009091BF00E817AB
S1130750F90709F04DC0B1E04B16510409F048C047
S1130760A8014F5F5F4FFA01EE0FFF1FDF01A40FD7
S1130770B51FAA0FBB1FA05ABF4F6D917C91DB011F
S1130780A21BB30BE40FF51FEE0FFF1FE05AFF4F40
S113079062807380A301481B590BCA014CE34A9F32
S11307A030014B9F700C1124680E791E7F926F925A
S11307B083E990E09F938F93CE0101966C019F9300
S11307C08F930E942605C6010E9438020E949A0057
S11307D047E950E066E081E00E9480000F900F90AE
S11307E00F900F900F900F90812C912C412C512C35
S11307F08114910409F44EC0F701EE0FFF1FEE0DB2
S1130800FF1DEE0FFF1FE05AFF4F808191813CE3F3
S1130810389FA001399F500D112482819381840F48
S1130820951F44815581840F951F6091C00070917C
S1130830C100369FA001379F500D11242091BE00A6
S11308403091BF00240F351F821B930B01974091F9
S1130850BC005091BD002BE330E0241B350B3F93CB
S11308602F939F938F9385EA90E09F938F936E01CC
S113087096E0C90ED11CDF92CF920E942605A601F4
S113088060E081E00E9480000FB6F894DEBF0FBEE6
S1130890CDBF4AC08091C0009091C1006CE3689FB5
S11308A09001699F300D11248091BE009091BF008A
S11308B0280F391FC701880F991F8E0D9F1D880FA0
S11308C0991FFC01E05AFF4F80819181689FA0012C
S11308D0699F500D112482819381840F951F281BD9
S11308E0390BC301821B930B01972091BC003091FB
S11308F0BD0033273F932F939F938F938FEA90E00C
S11309009F938F936E01B6E0CB0ED11CDF92CF92F2
S11309100E942605A60160E081E00E9480000FB6D7
S1130920F894DEBF0FBECDBF0F5F1F4F053011051A
S11309300CF43DCE0DCE80E090E0AD960FB6F89469
S1130940DEBF0FBECDBFDF91CF911F910F91FF90FE
S1130950EF90DF90CF90BF90AF909F908F907F905B
S11309606F905F904F903F902F9008951F920F9239
S11309700FB60F9211242F933F934F935F936F936E
S11309807F938F939F93AF93BF93EF93FF930E94B3
S11309907C020E94F801FF91EF91BF91AF919F916A
S11309A08F917F916F915F914F913F912F910F9014
S11309B00FBE0F901F90189597FB072E16F4009406
S11309C007D077FD09D00E94120507FC05D03EF43C
S11309D0909581959F4F0895709561957F4F0895E7
S11309E0A1E21A2EAA1BBB1BFD010DC0AA1FBB1F2F
S11309F0EE1FFF1FA217B307E407F50720F0A21BA1
S1130A00B30BE40BF50B661F771F881F991F1A940D
S1130A1069F760957095809590959B01AC01BD0137
S1130A20CF010895AA1BBB1B51E107C0AA1FBB1F1E
S1130A30A617B70710F0A61BB70B881F991F5A9566
S1130A40A9F780959095BC01CD010895AEE0B0E082
S1130A50ECE2F5E00C94E7070D891E8986E08C83AF
S1130A601A8309838FEF9FE79E838D83AE01475ED0
S1130A705F4F6F89788DCE0101960E944805EF8102
S1130A80F885E00FF11F10822E96E4E00C94030821
S1130A90ABE0B0E0EEE4F5E00C94D9076C017B0127
S1130AA08A01FC0117821682838181FFCCC1CE01A9
S1130AB001963C01F6019381F70193FD859193FF23
S1130AC081917F01882309F4BAC1853239F493FDF9
S1130AD0859193FF81917F01853229F4B60190E0DD
S1130AE00E943F07E7CF912C212C312CFFE1F31515
S1130AF0D8F08B3279F038F4803279F08332A1F473
S1130B00232D20611DC08D3261F0803369F4232DC3
S1130B10216016C0832D8260382EE32DE4603E2EC2
S1130B202AC0F32DF8601DC037FC2DC020ED280F1E
S1130B302A3040F08E32B9F436FC81C1232D206472
S1130B40322E19C036FE06C08AE0989E200D11246C
S1130B50922E11C0EAE02E9E200D1124222EF32D98
S1130B60F0623F2E08C08C3621F4832D8068382E25
S1130B7002C0883641F4F70193FD859193FF81917A
S1130B807F018111B3CF982F9F7D9554933028F422
S1130B900C5F1F4F9FE399830DC0833631F0833779
S1130BA071F0833509F059C021C0F801808189832F
S1130BB00E5F1F4F88248394912C530113C0280186
S1130BC0F2E04F0E511CF801A080B18036FE03C044
S1130BD0692D70E002C06FEF7FEFC5010E943407FA
S1130BE04C018201F32DFF773F2E16C0280122E02D
S1130BF0420E511CF801A080B18036FE03C0692D5D
S1130C0070E002C06FEF7FEFC5010E9429074C011D
S1130C10F32DF0683F2E820133FC1BC0822D90E03F
S1130C2088169906B0F4B60180E290E00E943F076E
S1130C302A94F4CFF50137FC859137FE81915F0149
S1130C40B60190E00E943F0721102A9421E0821A05
S1130C5091088114910471F7E8C0843611F0893643
S1130C6041F5F80137FE07C060817181828193816B
S1130C700C5F1F4F08C060817181072E000C880B28
S1130C80990B0E5F1F4FF32DFF763F2E97FF09C080
S1130C9090958095709561957F4F8F4F9F4FF06829
S1130CA03F2E2AE030E0A3010E947B07882E86189D
S1130CB045C0853731F4232D2F7EB22E2AE030E053
S1130CC025C0932D997FB92E8F36C1F018F488353D
S1130CD079F0B5C0803719F0883721F0B0C0E92F1A
S1130CE0E061BE2EB4FE0DC0FB2DF460BF2E09C022
S1130CF034FE0AC0292F2660B22E06C028E030E058
S1130D0005C020E130E002C020E132E0F801B7FE86
S1130D1007C060817181828193810C5F1F4F06C07F
S1130D206081718180E090E00E5F1F4FA3010E94FB
S1130D307B07882E8618FB2DFF773F2E36FE0DC0CD
S1130D40232D2E7FA22E891458F434FE0BC032FCBE
S1130D5009C0832D8E7EA82E05C0B82CA32C03C0F9
S1130D60B82C01C0B92CA4FE0FC0FE01E80DF11D82
S1130D708081803321F49A2D997EA92E09C0A2FE88
S1130D8006C0B394B39404C08A2D867809F0B39452
S1130D90A3FC11C0A0FE06C0B21488F4280C922C47
S1130DA09B180EC0B21460F4B60180E290E00E9479
S1130DB03F07B394F7CFB21418F42B1802C0982C41
S1130DC0212CA4FE10C0B60180E390E00E943F07EE
S1130DD0A2FE17C0A1FC03C088E790E002C088E52A
S1130DE090E0B6010CC08A2D867859F0A1FE02C0AD
S1130DF08BE201C080E2A7FC8DE2B60190E00E9484
S1130E003F07891438F4B60180E390E00E943F075D
S1130E109A94F7CF8A94F301E80DF11D8081B6010D
S1130E2090E00E943F078110F5CF222009F442CEC2
S1130E30B60180E290E00E943F072A94F6CFF601C3
S1130E408681978102C08FEF9FEF2B96E2E10C948D
S1130E50F507FC010590615070400110D8F78095AA
S1130E6090958E0F9F1F0895FC0161507040019072
S1130E700110D8F7809590958E0F9F1F08950F93BA
S1130E801F93CF93DF93FB01238121FD03C08FEFD9
S1130E909FEF2CC022FF16C04681578124813581E3
S1130EA04217530744F4A081B1819D012F5F3F4F46
S1130EB0318320838C93268137812F5F3F4F378383
S1130EC0268314C08B01EC01FB010084F185E02D25
S1130ED00995892BE1F6D80116968D919C91179767
S1130EE0019617969C938E931697CE01DF91CF911E
S1130EF01F910F910895FA01AA27283051F120314A
S1130F0081F1E8946F936E7F6E5F7F4F8F4F9F4F99
S1130F10AF4FB1E03ED0B4E03CD0670F781F891FDB
S1130F209A1FA11D680F791F8A1F911DA11D6A0FA9
S1130F30711D811D911DA11D20D009F468943F915C
S1130F402AE0269F11243019305D3193DEF6CF015B
S1130F500895462F4770405D4193B3E00FD0C9F721
S1130F60F6CF462F4F70405D4A3318F0495D31FD8E
S1130F704052419302D0A9F7EACFB4E0A6959795E1
S1130F80879577956795BA95C9F7009761057105B7
S1130F9008959B01AC010A2E069457954795379501
S1130FA02795BA95C9F7620F731F841F951FA01D5B
S1130FB008952F923F924F925F926F927F928F92F9
S1130FC09F92AF92BF92CF92DF92EF92FF920F93D4
S1130FD01F93CF93DF93CDB7DEB7CA1BDB0B0FB6DE
S1130FE0F894DEBF0FBECDBF09942A88398848889B
S1130FF05F846E847D848C849B84AA84B984C88431
S1131000DF80EE80FD800C811B81AA81B981CE0F27
S1131010D11D0FB6F894DEBF0FBECDBFED0108950C
S1071020F894FFCF6E
S1131024080000000000080001000100090000009D
S11310340A000B0000002D000F001E00FFFF802596
S11310440000253032783A253032783A2530327827
S11310542020006C25640074696C207061757365CC
S11310640062256400253032783A25303278002530
S10D10743032643A25303264000083
S9030000FC
