S00C0000377365672E73726563A2
S11300000C942A000C9447000C9447000C9447006D
S11300100C9447000C9447000C9447000C94DA00AD
S11300200C9447000C9447000C9447000C94470030
S11300300C9447000C9447000C9447000C94470020
S11300400C9447000C9447000C9447000C94470010
S11300500C94470011241FBECFE5D8E0DEBFCDBF0E
S113006010E0A0E6B0E0EAE8F2E002C005900D92EC
S1130070AA36B107D9F720E0AAE6B0E001C01D9284
S1130080A037B207E1F70E94FE000C9443010C94E0
S113009000008FEF84BB8ABB1BBA85BB8EB588601A
S11300A08EBD89B7806189BF789489E391E09BBD57
S11300B08ABD8EB583608EBD089580916C00909149
S11300C06D002AE030E0B9010E941B0190936F009B
S11300D080936E0081E08BBBE0916E00F0916F0025
S11300E0E05AFF4F808185BB89EF90E00197F1F7DB
S11300F000C0000080916C0090916D00B9010E94D5
S11301001B01CB01B9010E941B0190936F008093E6
S11301106E0082E08BBBE0916E00F0916F00E05ABC
S1130120FF4F808185BB89EF90E00197F1F700C014
S1130130000080916C0090916D0064E670E00E9474
S11301401B01CB01B9010E941B0190936F008093A6
S11301506E0084E08BBBE0916E00F0916F00E05A7A
S1130160FF4F808185BB89EF90E00197F1F700C0D4
S1130170000080916C0090916D0068EE73E00E9425
S11301801B01CB01B9010E941B0190936F00809366
S11301906E0088E08BBBE0916E00F0916F00E05A36
S11301A0FF4F808185BB89EF90E00197F1F700C094
S11301B0000008951F920F920FB60F9211242F93EF
S11301C03F934F935F936F937F938F939F93AF93DB
S11301D0BF93EF93FF930E945D00FF91EF91BF9156
S11301E0AF919F918F917F916F915F914F913F91CB
S11301F02F910F900FBE0F901F90189580E884BF29
S11302000E94490081EE90E190936D0080936C0010
S113021090936B0080936A0085B5886085BD89B72B
S1130220806189BF789489E391E09BBD8ABD85B5DF
S1130230836085BDFFCF97FB072E16F4009407D08B
S113024077FD09D00E942F0107FC05D03EF490955C
S113025081959F4F0895709561957F4F0895AA1BCE
S1130260BB1B51E107C0AA1FBB1FA617B70710F09D
S1130270A61BB70B881F991F5A95A9F780959095CF
S10D0280BC01CD010895F894FFCFEE
S10D028A039F250D9949411F011936
S9030000FC
