S00D0000736572766F2E73726563E8
S11300000C942A000C9434000C9434000C943400A6
S11300100C9434000C9434000C9434000C9434008C
S11300200C9434000C9434000C9434000C9434007C
S11300300C9434000C9434000C9434000C9434006C
S11300400C9434000C9434000C9434000C9434005C
S11300500C94340011241FBECFE5D8E0DEBFCDBF21
S11300600E9465000C94B6000C9400001DBC1CBCDE
S11300708EE991E697BD86BD82E88FBD8BE18EBD8A
S113008008959C01265A3F4F4BEE429FC001439F67
S1130090900D112464EB70E00E948E00CB018F5B05
S11300A09F4F813491052CF08D3221E0920724F486
S11300B0089581E490E008958CE291E0089590E041
S11300C00E9441009BBD8ABD089581B365E00E94F2
S11300D0360086EA0E945F002FED83E994E0215008
S11300E080409040E1F700C0000080E00E945F0083
S11300F02FED83E994E0215080409040E1F700C067
S113010000008AE50E945F002FED83E994E021500E
S113011080409040E1F700C00000DBCF97FB072E42
S113012016F4009407D077FD09D00E94A20007FCC2
S113013005D03EF4909581959F4F089570956195F3
S11301407F4F0895AA1BBB1B51E107C0AA1FBB1F09
S1130150A617B70710F0A61BB70B881F991F5A954F
S1130160A9F780959095BC01CD010895F894FFCF2F
S9030000FC
