S0150000736C6176655F746561636865722E73726563B9
S11300000C942A000C9447000C9447000C9447006D
S11300100C946E010C9447000C9447000C94470018
S11300200C9447000C9447000C94D8000C9447009F
S11300300C9447000C945A020C9447000C9447000B
S11300400C9447000C9447000C9447000C94470010
S11300500C94470011241FBECFE5D8E0DEBFCDBF0E
S113006010E0A0E6B0E0E8E4F6E002C005900D92EE
S1130070A037B107D9F720E0A0E7B0E001C01D9296
S1130080AC38B207E1F70E944E010C9422030C94A1
S113009000008FEF84BB8ABB1BBA85BB83B7886023
S11300A083BF89B7826089BF789487E28CBF83B7A6
S11300B0846083BF089580917400909175002AE054
S11300C030E0B9010E94A3029093770080937600F8
S11300D081E08BBBE0917600F0917700EA59FF4F05
S11300E0808185BB89EF90E00197F1F700C00000A3
S11300F08091740090917500B9010E94A302CB0114
S1130100B9010E94A302909377008093760082E065
S11301108BBBE0917600F0917700EA59FF4F808124
S113012085BB89EF90E00197F1F700C00000809152
S113013074009091750064E670E00E94A302CB0104
S1130140B9010E94A302909377008093760084E023
S11301508BBBE0917600F0917700EA59FF4F8081E4
S113016085BB89EF90E00197F1F700C00000809112
S113017074009091750068EE73E00E94A302CB01B5
S1130180B9010E94A302909377008093760088E0DF
S11301908BBBE0917600F0917700EA59FF4F8081A4
S11301A085BB89EF90E00197F1F700C00000089546
S11301B01F920F920FB60F9211242F933F934F93D8
S11301C05F936F937F938F939F93AF93BF93EF93BB
S11301D0FF930E945B00FF91EF91BF91AF919F91BC
S11301E08F917F916F915F914F913F912F910F90DC
S11301F00FBE0F901F9018958FB582688FBD8EB576
S113020089618EBD8FE19EE497BD86BD81B3806216
S113021081BB8CED95E09BBD8ABD08959BBD8ABDD5
S113022008952AB128612AB920B5266820BD2BB1CA
S113023022602BB92AB120682AB9DC01CB01880FCE
S1130240991FAA1FBB1F880F991FAA1FBB1F9C01C0
S1130250AD01220F331F441F551F60E472E48FE089
S113026090E00E94B702DA01C9010197A109B1091E
S113027089B9892F9A2FAB2FBB27A7FDBA9580BDCB
S1130280089585B5886085BD89B7806889BF7894ED
S113029084EF83BD85B5876085BD089580E884BFFC
S11302A087B3816087BB0E9449008EE591E09093FB
S11302B07200809371000E9441010E94FC008CED49
S11302C095E00E940E01609162007091630080913C
S11302D06400909165000E941101FFCF1F920F925C
S11302E00FB60F9211242F933F934F935F936F9305
S11302F07F938F939F93AF93BF93EF93FF938091DB
S11303006000909161000197909361008093600078
S1130310892B09F05AC098B381E0892788BB809162
S11303207100909172000197909372008093710014
S11303302091710030917200A9E8B8E80E94D902B6
S113034096958795929582958F7089279F708927B6
S113035024E6289FA001299F500D11245093750075
S113036040937400E0917100F09172009F010E942B
S1130370D90296958795929582958F7089279F705B
S113038089276CE3689F9001699F300D1124CF0188
S1130390821B930B840F951F9093750080937400B8
S11303A084E090E0909361008093600080917100FC
S11303B0909172008C32914041F4809170008111CF
S11303C004C080ED97E00E940E01FF91EF91BF9170
S11303D0AF919F918F917F916F915F914F913F91D9
S11303E02F910F900FBE0F901F9018950F931F938E
S11303F0CF93DF93CDB7DEB764970FB6F894DEBF23
S11304000FBECDBF8C01FC018081823641F481E0B6
S11304108093700084EC99E00E940E0108C08C3631
S113042031F4109270008CED95E00E940E0181E091
S113043090E00AC0FC01319741E050E04C0F5D1F91
S1130440E40FF51F20830196F801E80FF91F2081BE
S11304502111F0CFF80101900020E9F73197E01B5A
S1130460F10B319781E090E08C0F9D1FE80FF91F8D
S11304701082CE0101960E94FC0290937200809338
S1130480710020917100309172004CE3429FC001D1
S1130490439F900D11249093720080937100649691
S11304A00FB6F894DEBF0FBECDBFDF91CF911F9181
S11304B00F9108951F920F920FB60F9211242F934C
S11304C03F934F935F936F937F938F939F93AF93D8
S11304D0BF93EF93FF938CB18A3021F09091730016
S11304E09331A0F0E0917300F0E0E858FF4F1082E0
S11304F01092730088E790E00E94F60184E1E8E737
S1130500F0E0DF011D928A95E9F70CC08D3051F0BF
S1130510E091730091E09E0F90937300F0E0E8582F
S1130520FF4F8083FF91EF91BF91AF919F918F9186
S11305307F916F915F914F913F912F910F900FBEDB
S11305400F901F90189597FB072E16F4009407D070
S113055077FD09D00E94E80207FC05D03EF490958F
S113056081959F4F0895709561957F4F0895A1E2FD
S11305701A2EAA1BBB1BFD010DC0AA1FBB1FEE1F19
S1130580FF1FA217B307E407F50720F0A21BB30B64
S1130590E40BF50B661F771F881F991F1A9469F7E0
S11305A060957095809590959B01AC01BD01CF013C
S11305B00895A29FB001B39FC001A39F700D811D38
S11305C01124911DB29F700D811D1124911D089558
S11305D0AA1BBB1B51E107C0AA1FBB1FA617B70765
S11305E010F0A61BB70B881F991F5A95A9F7809581
S11305F09095BC01CD010895FC0188279927E894C2
S113060021912032E9F3293010F02E30C8F32B3237
S113061041F02D3239F4689404C00E941A03820F09
S1130620911D219120532A30C0F31EF49095819599
S11306309F4F08957AE0979F902D879F802D910D6D
S10B064011240895F894FFCF82
S1130648040080250000039F250D9949411F0119C5
S9030000FC
